:1000000002C100002EC100002CC100002AC1000066
:1000100028C1000026C1000024C1000022C1000048
:1000200020C100001EC100001CC100001AC1000058
:1000300018C1000016C1000014C1000012C1000068
:1000400010C100000EC100000CC100000AC1000078
:1000500008C1000006C1000004C100007BC300000D
:1000600000C1000041C3000016C30000FAC0000038
:10007000F8C00000F6C00000F4C00000F2C00000AC
:10008000F0C00000EEC00000ECC00000EAC00000BC
:10009000E8C00000E6C00000E4C00000E2C00000CC
:1000A000E0C00000DEC00000DCC00000DAC00000DC
:1000B000D8C00000D6C00000D4C00000D2C00000EC
:1000C000D0C00000CEC00000CCC00000CAC00000FC
:1000D000C8C00000C6C00000C4C00000C2C000000C
:1000E000C0C0000000002100240027002A002D00CD
:1000F0003000330001010000040107010A01000083
:100100002200250028002B002E00310034000201BF
:100110000000050108010B0100002000230026005B
:1001200029002C002F00320000010000030106010D
:10013000090105050505070508080808020202026D
:100140000A0A080804040404010101010101010173
:100150000303030303030303040707070C0C0C0C3E
:100160000C0C0C0C02020202060606060606060627
:100170000B0B0B0B0B0B0B0B0102102020080810B4
:100180002040102040800201020108040201010207
:1001900004081020408080402010080402018004E0
:1001A000020180402010080402010804020101023B
:1001B0000408102040800102040810204080000044
:1001C0000A0B02090C0D0E080703040100000000D1
:1001D000000000000000000000000000000000001F
:1001E00000000000000000000000121110000000DC
:1001F00000000000000000000000000000000000FF
:10020000000000000F0511241FBECFEFD1E2DEBFBA
:10021000CDBF00E00CBF12E0A0E0B2E0ECE8FAE0F5
:1002200000E00BBF02C007900D92AA31B107D9F7C9
:1002300022E0AAE1B2E001C01D92A03CB207E1F7C2
:1002400011E0C3E0D1E000E005C021970109802F53
:10025000FE0112D4C230D10780E00807B1F7C4D242
:1002600013C4CECEAF92BF92CF92DF92EF92FF92A5
:100270000F931F93CF93DF936C017B018B01040FCE
:10028000151FEB015E01AE18BF08C017D10759F06A
:100290006991D601ED91FC910190F081E02DC601AC
:1002A0001995892B79F7C501DF91CF911F910F9196
:1002B000FF90EF90DF90CF90BF90AF900895FC013A
:1002C000538D448D252F30E0842F90E0821B930BBB
:1002D000541710F0CF96089501970895FC01918D61
:1002E000828D981761F0A28DAE0FBF2FB11D5D9664
:1002F0008C91928D9F5F9F73928F90E008958FEF06
:100300009FEF0895FC01918D828D981731F0828DB9
:10031000E80FF11D858D90E008958FEF9FEF089510
:10032000FC01918D228D892F90E0805C9F4F821B74
:1003300091098F739927089583E292E0F1DF21E01C
:10034000892B09F420E0822F0895FC01A48DA80FC9
:10035000B92FB11DA35ABF4F2C91848D90E0019607
:100360008F739927848FA689B7892C93A089B18927
:100370008C91837080648C93938D848D981306C0C8
:100380000288F389E02D80818F7D80830895EF922C
:10039000FF920F931F93CF93DF93EC0181E0888F3F
:1003A0009B8D8C8D98131AC0E889F989808185FF0F
:1003B00015C09FB7F894EE89FF896083E889F989B1
:1003C00080818370806480839FBF81E090E0DF91B3
:1003D000CF911F910F91FF90EF900895F62E0B8D06
:1003E00010E00F5F1F4F0F731127E02E8C8D8E11C1
:1003F0000BC00FB607FCFACFE889F989808185FF29
:10040000F5CFCE01A2DFF2CFEB8DEC0FFD2FF11D6A
:10041000E35AFF4FF0829FB7F8940B8FEA89FB896C
:1004200080818062D0CFCF93DF93EC01888D8823C9
:10043000B1F0AA89BB89E889F9898C9185FD03C04F
:10044000808186FD0CC00FB607FCF7CF8C9185FF2D
:10045000F2CF808185FFEDCFCE0177DFEACFDF914C
:10046000CF91089580E090E0892B21F065DF811124
:100470000E94000080E090E0892B49F080E090E04D
:10048000892B29F00E94000081110E94000080E069
:1004900090E0892B49F080E090E0892B29F00E94C0
:1004A000000081110E94000080E090E0892B49F05B
:1004B00080E090E0892B29F00E94000081110C94CB
:1004C000000008958150823108F059C0E82FF0E013
:1004D0008827E359FD4F8F4FCFC28D0291027F02D3
:1004E00085028902BF0294029A029E02A402A80217
:1004F000AC02B202B602BF02BA02C002C4028091CC
:1005000080008F77809380000895809180008F7D98
:10051000F9CF80918000877FF5CF84B58F7784BD38
:10052000089584B58F7DFBCF8091B0008F77809345
:10053000B00008958091B0008F7DF9CF8091900038
:100540008F77809390000895809190008F7DF9CFF0
:1005500080919000877FF5CF8091A0008F77809366
:10056000A00008958091A0008F7DF9CF8091A00018
:10057000877FF5CF809120018F77809320010895A8
:10058000809120018F7DF9CF80912001877FF5CF69
:100590001F93CF93DF93282F30E0F901E254FE4FF1
:1005A0008491F901E858FE4FD491F901EE5CFE4FB9
:1005B000C491CC23A1F0162F811184DFEC2FF0E041
:1005C000EE0FFF1FE250FF4FA591B4918FB7F89443
:1005D000EC91111108C0D095DE23DC938FBFDF9121
:1005E000CF911F910895DE2BF8CFCF93DF9390E04A
:1005F000FC01E858FE4F24918E5C9E4FFC018491D3
:100600008823D1F090E0880F991FFC01EC51FF4F37
:10061000A591B491FC01E250FF4FC591D4916111B5
:100620000EC09FB7F8948C91E22FE0958E238C93A7
:100630002881E223E8839FBFDF91CF9108958FB790
:10064000F894EC91E22BEC938FBFF6CF3FB7F89480
:1006500080911F0290912002A0912102B09122026C
:1006600026B5A89B05C02F3F19F00196A11DB11D0D
:100670003FBFBA2FA92F982F8827BC01CD01620F49
:10068000711D811D911D42E0660F771F881F991F04
:100690004A95D1F708951F920F920FB60F92112429
:1006A0000BB60F922F933F934F935F936F937F936C
:1006B0008F939F93AF93BF93EF93FF9383E292E067
:1006C00044DEFF91EF91BF91AF919F918F917F9108
:1006D0006F915F914F913F912F910F900BBE0F90B3
:1006E0000FBE0F901F9018951F920F920FB60F928A
:1006F00011240BB60F922F938F939F93EF93FF9339
:10070000E0913302F09134028081E0913902F0915E
:100710003A0282FD1DC0908180913C028F5F8F73F1
:1007200020913D02821741F0E0913C02F0E0ED5D46
:10073000FD4F958F80933C02FF91EF919F918F9198
:100740002F910F900BBE0F900FBE0F901F9018951A
:100750008081F2CF1F920F920FB60F9211242F9328
:100760003F938F939F93AF93BF9380911B02909180
:100770001C02A0911D02B0911E0230911A0223E0CA
:10078000230F2D3758F50196A11DB11D20931A0294
:1007900080931B0290931C02A0931D02B0931E0233
:1007A00080911F0290912002A0912102B09122021B
:1007B0000196A11DB11D80931F0290932002A0936A
:1007C0002102B0932202BF91AF919F918F913F91EF
:1007D0002F910F900FBE0F901F90189526E8230FB2
:1007E0000296A11DB11DD2CF789484B5826084BDDC
:1007F00084B5816084BD85B5826085BD85B5816025
:1008000085BD80916E00816080936E0010928100A2
:10081000809181008260809381008091810081605D
:10082000809381008091800081608093800080911E
:10083000B10084608093B1008091B00081608093AA
:10084000B00080919100826080939100809191002E
:1008500081608093910080919000816080939000EE
:100860008091A10082608093A1008091A1008160AD
:100870008093A1008091A00081608093A00080916E
:100880002101826080932101809121018160809308
:1008900021018091200181608093200180917A0064
:1008A000846080937A0080917A00826080937A00DD
:1008B00080917A00816080937A0080917A008068CC
:1008C00080937A001092C10061E087E18EDE61E0E2
:1008D00086E18BDE60E088E188DEE0913302F09112
:1008E000340282E08083E0912F02F0913002108286
:1008F000E0913102F09132028FEC808310923B0242
:10090000E0913702F091380286E08083E091350271
:10091000F0913602808180618083E0913502F09110
:100920003602808188608083E0913502F091360242
:10093000808180688083E0913502F0913602808169
:100940008F7D808336ED832E31E0932E00E911E018
:100950004AE4A42E41E0B42ECBE9DFE0F401849117
:10096000F801E490F501F490FF2009F456C08111DC
:10097000A9DDEF2DF0E0EE0FFF1FE85EFE4FA59121
:10098000B4918C91E82209F448C043E050E062E160
:1009900072E083E292E066DC42E050E066E172E001
:1009A00083E292E05FDC61E086E1F2DD94EFE92E24
:1009B000FF24F39461E087E1EBDDCE010197F1F7CD
:1009C00060E087E1E5DDCE010197F1F7F1E0EF1A94
:1009D000F10881F73BDE2B013C0188EEC82E83E055
:1009E000D82EE12CF12C32DE64197509860997099D
:1009F000683E734081059105B0F321E0C21AD10829
:100A0000E108F10888EE480E83E0581E611C711C55
:100A1000C114D104E104F10431F724DD9FCFE3E2F6
:100A2000F2E01382128288EE93E0A0E0B0E08483CB
:100A30009583A683B78384E092E09183808385ECDD
:100A400090E09587848784EC90E09787868780EC98
:100A500090E0918B808B81EC90E0938B828B82EC89
:100A600090E0958B848B86EC90E0978B868B118E33
:100A7000128E138E148E0895EE0FFF1F881F8BBFEA
:0C0A80000790F691E02D1994F894FFCF38
:100A8C0000000000C70132015F01130290016E01EA
:0A0A9C0082014D6F69000D0A000091
:00000001FF
